:020000040800F2
:10000000C00A002035020008492000083D1F0008F2
:1000100045200008971C0008F73100080000000088
:10002000000000000000000000000000F9290008A6
:10003000EF1C000800000000A9270008FD2B0008A5
:100040004F0200084F0200084F0200084F0200084C
:100050004F0200084F0200084F0200084F0200083C
:100060004F0200084F0200084F0200084F0200082C
:100070004F0200084F0200084F0200084F0200081C
:100080004F0200084F0200084F0200084F0200080C
:100090004F0200084F0200084F0200084F020008FC
:1000A0004F020008612C00084F0200084F020008B0
:1000B0004F0200084F0200084F0200084F020008DC
:1000C0004F0200084F0200084F0200084F020008CC
:1000D0004F020008E52F00084F0200084F020008F9
:1000E0004F0200084F0200084F02000800F002F81B
:1000F00000F090F80AA090E8000C82448344AAF132
:100100000107DA4501D100F085F8AFF2090EBAE82F
:100110000F0013F0010F18BFFB1A43F0010318473B
:1001200098480000B8480000103A24BF78C878C149
:10013000FAD8520724BF30C830C144BF04680C60ED
:10014000704700000023002400250026103A28BF35
:1001500078C1FBD8520728BF30C148BF0B60704739
:100160006E2900F07B81702900F0BD82662903F0C2
:10017000FA86652903F0F786672903F0F48661297A
:1001800003F0F38603681B0A28BF41F08001692948
:1001900000F02881642900F02581752900F0228172
:1001A0006F2900F04A82782900F08982E92900F05D
:1001B000E581E42900F0E281F52900F0DF81EF29F3
:1001C00000F04782F82900F088820368DB0928BF25
:1001D00041F08001632900F08B87732900F090873C
:1001E000E32900F09B87F32900F0A08700207047E7
:1001F0001FB500F0F1FF04000020002103F086F994
:10020000401C60600020002103F06AF9E0601FBD1F
:1002100010B510BD00F0B2FF1146FFF7E9FF03F083
:1002200043F801F08FF803B4FFF7F2FF03BC01F0CD
:1002300093F800000948804709480047FEE7FEE7B9
:10024000FEE7FEE7FEE7FEE7FEE7FEE7FEE7FEE786
:1002500004480549054A064B70470000012C000878
:10026000ED000008C0040020C00A0020C0060020E5
:10027000C00600201CB50C46064B7B446946009026
:10028000204600F004F904460020694600F012F907
:1002900020461CBD370200004FF0013C50F8042BF3
:1002A00051F8043B9A4221D1A2EB0C03934313EA89
:1002B000CC1317D150F8042B51F8043B9A4215D1B6
:1002C000A2EB0C03934313EACC130BD150F8042B8D
:1002D00051F8043B9A4209D1A2EB0C03934313EA71
:1002E000CC13DBD04FF00000704700BFD01A01BA2A
:1002F000B1FA81F101F0180122FA01F0CB40C1F10D
:100300002001DBB2C0B2C01A2CFA01F3D11A91431A
:1003100011EAC311E6D1704770477047704770B556
:10032000044685690068C10601D5302600E0202614
:10033000C00707D070BDD4E9012130469047206A3C
:10034000401C20626D1EF6D570BD70B504468569EF
:100350000078C00707D170BDD4E901212020904763
:10036000206A401C20626D1EF6D570BD09684A05E2
:1003700001D540B27047C905FCD500B27047096885
:100380004A0501D5C0B27047C905FCD580B2704797
:1003900070B50C460546012A05D02878800600D5A0
:1003A000EA69002302E0012305E05B1C934202D2CC
:1003B000E05C0028F9D1A869E618C01AA861286A8B
:1003C000184428622846FFF7AAFF04E0D5E9012176
:1003D00014F8010B9047B442F8D32846FFF7B5FF55
:1003E00070BD00002DE9F041064600241068752913
:1003F000314616A510D0FFF7B9FF002802DA4042B7
:1004000013A507E031688A0701D512A502E0490764
:1004100004D511A5012401E0FFF7B1FF00210A2254
:1004200006F1240709E0B0FBF2FCB0FBF2F302FB9B
:100430001C00303078541846491C0028F3D123465C
:100440002A463046BDE8F04100F061BA00000000E5
:100450002D0000002B000000200000001168026841
:10046000006A530501D508700AE0D30501D508805C
:1004700006E0130603D5C217C1E9000200E00860D8
:100480000120704701694A1C02610878704700B575
:100490008FB0CDE901310021059105497944CDE9BD
:1004A00003101146684600F029F90FB000BD0000A6
:1004B000E5FFFFFF0A6802F8010B0A6070470000C1
:1004C0002DE9FF5F15468A460446DFF8AC80F84404
:1004D0000027D8E900103E46CDE9001010E03AF8B8
:1004E00016106A4602A800F025FE411C07D02178AC
:1004F000890603D5E269391891420DD80744761C64
:100500002078800602D5E069B84205DDAE42E6DB20
:100510003AF816000028E2D1A069C01BA06120466D
:10052000FFF7FDFED8E90010CDE90010002017E02C
:100530003AF818106A4602A800F0FCFDB0F1FF3F3F
:1005400081460BD000250DF1080B05E0D4E901210F
:100550001BF8050090476D1C4D45F7D308F10100CD
:10056000B0428046E4DB206A384420622046FFF730
:10057000ECFEBDE8FF9F0000EA4300002DE9F041DA
:100580008046D21D22F007020025D2E90002F5299B
:1005900015A614D0011E72F1000106DA0023D0EB7B
:1005A000030063EB020211A608E0D8F800108B07E5
:1005B00001D50FA602E0490701D50EA60125114677
:1005C000002408F1240704E000F05CF930323A55C9
:1005D000641C50EA0102F7D12B46324621464046C0
:1005E000BDE8F04100F093B9000000002D000000CC
:1005F0002B0000002000000030B4002100F1240492
:1006000008E002F00705D208303542EA4372DB0801
:100610006554491C52EA0305F3D10468002310A273
:10062000250707D5A40600D421B1C46901230DA272
:10063000641EC46130BC00F06AB910B5044621469E
:100640001068FFF79CFE02462046BDE810400023DC
:10065000D2E7D21D22F00701D1E90023CCE7000048
:100660000000000030000000F0B40D4601880905CC
:1006700002D5214C7C4402E01F4C7C440E34002106
:1006800000F1240608E002F00F071209E75D42EAD4
:1006900003721B097754491C52EA0307F3D102780D
:1006A0000023120704D5702D06D009B1022311349E
:1006B0002246F0BC00F02BB901231034F8E770B5E6
:1006C00004460D4621461068FFF759FE02462946AA
:1006D0002046BDE870400023C6E7D21D22F0070384
:1006E000D3E90023C0E70368126843F020030360E6
:1006F0000823C3610023B7E74C4200002DE9F05FF7
:10070000894604464FF0000ADFF874B1FB44C0F894
:1007100020A02046E1688847002874D0252806D00C
:10072000D4E901219047206A401C2062F1E70026AD
:100730005F462046E16888472028054607DB312DC3
:1007400005D2781910F8200C08B10643F1E7B0077C
:1007500001D526F00406C4F81CA00027C4F818A090
:100760002A2D09D0284602F05CFD38B304EB870837
:10077000303DC8F8185019E059F8041B204604EB26
:1007800087029161E1688847012F054618D1E06929
:10079000002820DA26F020061DE0D8F8180000EB2B
:1007A000800005EB40003038C8F818002046E168AA
:1007B0008847054602F035FD0028EED1012F0AD00A
:1007C0002E2D08D12046E16888477F1C0546022F60
:1007D00046F02006C4DBA069002803DA404246F058
:1007E0000106A061F00701D026F010066C2D0BD099
:1007F000682D09D04C2D39D06A2D35D0742D35D0C7
:100800007A2D33D016E038E0E1682F46204688473D
:10081000B842054609D16C2F26D04FF48060E168BC
:10082000064320468847054604E06C2F1AD04FF453
:10083000807006430DB3A5F14100192802D8203578
:1008400046F400664A462946204626604E46FFF793
:1008500087FC80B101280BD0F61D26F0070000F1BF
:10086000080956E74020E4E78020D8E70020D6E7D3
:1008700006F104094DE7284652E7206ABDE8F09FDB
:10088000DC41000030B5B0F10A024FEA900E71F180
:1008900000034EEA817EB0EB0E0061EB91014FEA5E
:1008A000101E4EEA017E10EB0E0041EB11114FEAD3
:1008B000102E4EEA016E10EB0E0041EB11214FEAB3
:1008C000104E4EEA014E10EB0E0041EB1141401864
:1008D00041F100014FEAD00040EA41704FEAD101F6
:1008E00010EB80054FEA810444EA907444EB010464
:1008F0006D1944EB0404521BA3414FF0000348BFA1
:100900000A3200D530BD401C41F1000130BD2DE957
:10091000F0470D4699469246044600F124080168C6
:10092000880604D5E06921F01001216000E0012073
:10093000A84201DD471B00E00027A1697A1902EBFC
:100940000900081AA0612078C00602D42046FFF7EB
:10095000E6FC002608E0D4E901211AF806009047D9
:10096000206A401C761C20624E45F4DB2078C006CD
:100970000AD52046FFF7D3FC06E0D4E90121302058
:100980009047206A401C2062381EA7F10107F4DC62
:1009900007E0D4E9012118F805009047206A401CBF
:1009A0002062281EA5F10105F3DC2046FFF7CDFCEF
:1009B0002078000602D50220BDE8F0870120FBE781
:1009C00070472DE9FF4F0C461E464FF0FF378BB0A6
:1009D000D2E90001DDF860800A908A46C1F30A5529
:1009E00005B93D46002108464FF00000BAF1000F5E
:1009F00000F4400005DA00EB80004FF4400101EA0A
:100A000050004FEA9059B9F1010F00DDB9460A983C
:100A100050EA4A000ED044F61050A5F2FF35454387
:100A20002F14B8F1000F1ED07542291E1EDDC9F12A
:100A300000021CE0B8F1010F4FF0000001D030219E
:100A400003E0F24305E02154401CB042FBDB30469A
:100A50000022002121540B99C1F80880C1E900202F
:100A60000FB0BDE8F08FBD1B6D1CDEE74A4600DA13
:100A7000694206A800F0F4FB06AB93E8070003AB5D
:100A800083E8070050460A9900F06DFC8DE80700E6
:100A9000A0F500501F3800900398002D0ADD42F2A7
:100AA0001F014A460844002303A90390684600F04A
:100AB000D6FE09E0A0F500504A461F38002303A9DE
:100AC0000390684600F0E0FE8DE807000004000C8B
:100AD00003D04FF0FF30410800E01046B8F1000F9E
:100AE00003D00022009215461EE0751E05D4FFF7C4
:100AF000C9FE303262556D1EF9D5B3460122084356
:100B000002D000227F1C04E02078302801D100228E
:100B10007F1E002A099784D01DE0112D07DAFFF708
:100B2000B1FE303262556D1C50EA0102F5D1084326
:100B300002D00098C8B10EE00021681E05E0235CD9
:100B4000625C63542254401E491C8142F7DBAB4671
:100B5000A81B401E0990002004F80B000B98099A6E
:100B6000C0F80880C0E9002B7AE711264FF0000892
:100B700057E72DE9F04F88460446D21D22F00701C1
:100B800091B0D1E90001CDE90A0102F036FB02463D
:100B90000B98C00F01D02D2007E02068810701D5F8
:100BA0002B2002E0202101EAC000032A099001D095
:100BB000072A05DB03464146204600F011FB0BE106
:100BC0002078800601D5E06900E00620B8F1650FC5
:100BD000814606D0B8F1660F18D0B8F1670F70D112
:100BE00031E00020B9F1110F009001DB112301E089
:100BF00009F101030AAA01A90CA8FFF7E2FEDDE949
:100C00000C70002609F10105834647E001204B46A0
:100C100000904FF000470AAA01A90CA8FFF7D1FEE7
:100C2000DDE90DB00C995D46002610B909F101000F
:100C30000D18B9EB050003D4C0F1FF3609F1010529
:100C4000A5EB09002BE0B9F1010F01DA4FF0010922
:100C50000020B9F1110F0090484601DD112300E09A
:100C600003460AAA01A90CA8FFF7ABFEDDE90C7048
:100C70004D4600268346207800070AD4AB4500DAAB
:100C80005D4601A8012D04DD411911F8011C302930
:100C900007D04F4502DA17F1040F04DA012082462B
:100CA0000FE06D1EEEE7002F02DCED1B3E4403E07B
:100CB000781CA84200DD7D1CB81B00F1010A4FF032
:100CC00000472078000703D4AA4501DB4FF0FF3A24
:100CD0000021B7F1004F0DF143088DF8431024D0E7
:100CE00002202B23002F01DA7F422D230A21021E2E
:100CF000A0F1010000DC5FB197FBF1FC97FBF1F282
:100D000001FB1C7C17460CF1300C08F801CDEEE716
:100D1000A8F1010003702188090501D5452100E0F3
:100D20006521A0F1010800F8011C09980FA9A1EBA9
:100D30000807FF1D00B10120411901EBEA70A1690C
:100D40003844081A401EA0612078C00602D420460C
:100D5000FFF7E5FA099828B1D4E901219047206A04
:100D6000401C20622078C00622D52046FFF7D7FA23
:100D70001EE0002E04DBB34502DD01A8805D00E02B
:100D80003020D4E901219047206A401C2062761C63
:100D9000AAF101005FEA000A0AD100F01DFAC0685A
:100DA0000168405CD4E901219047206A401C206220
:100DB000281EA5F10105DCDC07E0D4E9012118F8C3
:100DC000010B9047206A401C2062381EA7F10107E2
:100DD000F3DC2046FFF7B9FA032011B041E600002A
:100DE0002DE9F04F04460D46D21D22F0070089B0D0
:100DF000D0E900974846394602F0FFF90246F80F5D
:100E000001D02D2307E02068810701D52B2302E0C4
:100E1000202101EAC0038DF820300BB1012000E051
:100E20000020032A824601D0072A04DB29462046F7
:100E300000F0D6F93FE12078800601D40D2500E0CE
:100E4000E569C7F30A560D2D49DA00214FEA175B11
:100E500008464FF00000002F00F4400007DA00EBD6
:100E600080004FF4400100EBD07001EA6000811572
:100E7000012901DD4FF0FF3100224FEA850CBCF162
:100E8000180F06D31346ACF118004FF08052C24041
:100E900003E04FF4801323FA0CF30CF10C0CBCF1BB
:100EA000200F04D3ACF1200C09FA0CF001E007FA92
:100EB0000CF000294FF0004801DD18B90FE00ED109
:100EC00040450CD319EB02095F4121B9404502D1DD
:100ED0009F4329EA0209BBEB175F00D0761C2088EC
:100EE000000502D57B48784402E07A4878441938F6
:100EF00008AA302302F80A30037C0AF10101002E0F
:100F00000AF1020A53546A4602DC4FF0300101E054
:100F10004FF031014FF001088DF8001002D0A6F219
:100F2000FF3603E059EA470100D06B4E002D02DC8A
:100F30002178090704D54FF002082E218DF8011001
:100F4000C44600210BE0C7F303433F01C35C491CC7
:100F50006D1E02F80830052908F1010801DA002D9C
:100F6000F1DC00210CE000EB1973491C1B786D1EAD
:100F7000082902F808304FEA091908F1010801DAD6
:100F8000002DF0DC21688B0602D516E0A8F10108DF
:100F9000E04505DD02EB080313F8013C302BF5D0EA
:100FA000B8F1000F09DD02EB080313F8013C2E2B0A
:100FB00003D1090701D4A8F10108002D05DD3E2168
:100FC00002F808106D1E08F10108407C002E02F89E
:100FD000080008F1010804DA2D20764202F8080022
:100FE00002E02B2002F808000A214FF47A708642B2
:100FF00008F101080BDB96FBF0F3303302F8083000
:1010000096FBF0F308F1010800FB136601E0642E83
:101010000CDB642096FBF0F3303302F8083096FBCB
:10102000F0F308F1010800FB136601E00A2E06DB6D
:1010300096FBF1F0303002F8080008F1010896FB49
:10104000F1F001FB1060303002F80800A16908F1EE
:10105000010808EB050202EB0A00081AA0612078DB
:10106000C00602D42046FFF75AF9216A08AE01EB08
:101070000A00206204E0D4E9012116F8010B904730
:10108000BAF1010AF7D22078C00602D52046FFF750
:1010900046F96E4609E016F8010B3E280FD0D4E958
:1010A00001219047206A401C2062B8F10108F2D269
:1010B0002046FFF74AF909B00320BDE8F08F206A07
:1010C0002844206203E0D4E90121302090476D1EBE
:1010D000EBD3F8E7263A000002FCFFFF10B54369A6
:1010E00013B1AFF3008001E0FFF752F9012010BD0A
:1010F000127800F124010A7000224A700122EDE703
:1011000011684FF0FF32E9E710B5436913B1AFF34F
:10111000008001E0FFF7D4F9012010BD128800F132
:10112000240182840022C2840122EDE711684FF07D
:10113000FF32E9E770B516460C46054600F044F864
:10114000036893F80101012806D0FF2C0FD8185D21
:1011500068B101202C7070BDD3F8070132462146DA
:1011600003F2071303442846BDE8704018474FF0C8
:10117000FF3070BD004870475C0400207546FFF7E3
:10118000F9FFAE4605006946534620F00700854644
:1011900018B020B5FFF75CF8BDE820404FF000061E
:1011A0004FF000074FF000084FF0000B21F007014F
:1011B000AC46ACE8C009ACE8C009ACE8C009ACE892
:1011C000C0098D467047000010B500F005F8001DFD
:1011D00010BD00BF39230000004870477C04002088
:1011E0002DE9F0411F46044603260168072A01F451
:1011F000006004DB08B116A505E016A503E008B100
:1012000015A500E015A521F010002060A069C01E02
:10121000A0610FB1401EA0612046FFF780F84FB1DA
:10122000D4E9012138469047206A401C2062C01C46
:10123000206206E0206AFAE7D4E9012115F8010BE3
:101240009047761EF8D22046FFF77FF8BDE8F08180
:101250004E414E006E616E00494E4600696E66005A
:101260002DE9F047814616468AB0354878440DC8C6
:101270008DE80D0032487844801C03AC0DC884E82A
:101280000D0041F69B300844372190FBF1F290FBB2
:10129000F1F5A5F1800501FB12041B3C02D5644267
:1012A000012000E00020DFF898A080460027FA44E3
:1012B000AAF1BE0A0EE0E0070AD03246684607EB04
:1012C000470101230AEB810100F0DEFA8DE80700F7
:1012D00064107F1C002CEED1194F7F44AE3F19E003
:1012E000E80715D007EB04100DF1180A90E80E007E
:1012F0008AE80E00C068F04201D198190890324681
:10130000012306A903A800F0BFFA03AB83E8070096
:101310006D10641C002DE3D14FF001033246694685
:10132000B8F1000F03A802D000F099FA01E000F034
:10133000ABFAC9E90001C9F808200AB0BDE8F08796
:101340003037000010B50446AFF300802046BDE8FA
:101350001040FEF768BF000001491820ABBEFEE751
:101360002600020070475FEA400C08BF91F0000FB2
:101370004FEA8C234FEAC12243EA51514FEA1C50F5
:1013800018BF00F5F0404FEA300018BF41F00041AF
:101390005FEA6C5C00F02980BCF1FF3F08BF40F0C1
:1013A00080407047130C06BF12044FF0100C4FF032
:1013B000000C130E04BF12020CF1080C130F04BF33
:1013C00012010CF1040C930F04BF92000CF1020CFB
:1013D000D30F04BF52000CF1010C11464FF0000274
:1013E000A0F11F00A0EB0C00704711F0004F08BFE8
:1013F000704731F000413FF4D5AF0B0C06BF090434
:101400004FF0100C4FF0000C0B0E04BF09020CF152
:10141000080C0B0F04BF09010CF1040C8B0F04BF67
:1014200089000CF1020CCB0F04BF49000CF1010C38
:10143000CCF12003A0EB0C0022FA03F302FA0CF229
:1014400041EA030100F10100704720F07F4C80EA7F
:10145000030023F07F47ACEB070303F57C5300F058
:10146000004003F1FF032DE980494FEA154B09B411
:101470004FEA144325EA0B4E24EA03480FF20426F0
:1014800006EB132749083E785FEA320203FB066742
:10149000C7F5000707FB06F64FEA54374FEAD64672
:1014A00006F1020607FB066CCCF1005C4FEA1C4714
:1014B0002CEA074C07FB06F40CFB06F504EB15467B
:1014C0004FEA961634BF00204FF000404FEAD13764
:1014D00006FB07FC4FEA1C4C0CFB0BF7D21B03FB73
:1014E0000CF761EB07010CFB0EF7B0EB074072EB5A
:1014F00017420CFB08F734BFA2EB0742B2EB0742DE
:1015000061EB17414FEA0C444FEA910706FB07FCD9
:101510004FEA1C4C0CFB0BF7B0EBC74072EB573299
:1015200003FB0CF734BFA2EBC742B2EBC74261EB3F
:1015300057310CFB0EF7B0EBC70072EB57720CFB88
:1015400008F734BFA2EBC702B2EBC70261EB5771D9
:10155000039F4FEA816141EA921104EBCC044FEA08
:10156000D1374FEA826206FB07FC42EA90124FEA4B
:1015700080604FEA1C4C0CFB0BF7D21B03FB0CF7F3
:1015800061EB07010CFB0EF7B0EB074072EB174263
:101590000CFB08F734BFA2EB0742B2EB074261EB4A
:1015A00017414FEA8C554FEA910704EB9C2406FB48
:1015B00007FC4FEA1C4C0CFB0BF7B0EBC74072EB7F
:1015C000573203FB0CF734BFA2EBC742B2EBC74262
:1015D00061EB57310CFB0EF7B0EBC70072EB5772A3
:1015E0000CFB08F734BFA2EBC702B2EBC70261EBFA
:1015F000577115EB4C254FEA816141EA92114FEA90
:1016000082624FEAD13742EA901206FB07FC44F1AE
:1016100000044FEA80604FEA1C4C0CFB0BF7D21B16
:1016200003FB0CF761EB07010CFB0EF7B0EB074077
:1016300072EB17420CFB08F734BFA2EB0742B2EB88
:10164000074261EB174115EB1C154FEA813141EA66
:1016500092414FEA823242EA90424FEA80304FEAAA
:101660000C7644F1000448EA03434EEA0B484FF07D
:10167000000EB2EB080C71EB030724BF624639463B
:101680004EEB0E0E4FF0000B0018524149414BEB50
:101690000B0BB2EB080C71EB03077BF1000B24BFC3
:1016A000624639464EEB0E0E4FF0000B00185241C9
:1016B00049414BEB0B0BB2EB080C71EB03077BF1D1
:1016C000000B24BF624639464EEB0E0E51EA02076C
:1016D00018BF46F0010616EB0E7655F1000254F1E4
:1016E000000103D5BDE88901BDE80088BDE8890196
:1016F000BDE80048B619524141EB0101A3F10103D5
:10170000704780807F7E7D7C7B7A7978777676756E
:101710007473727171706F6E6E6D6C6C6B6A6A69E6
:101720006868676666656464636362616160605F80
:101730005F5E5E5D5D5C5C5B5B5A5A5959585857F9
:101740005756565555555454535352525251515061
:1017500050504F4F4F4E4E4D4D4D4C4C4C4B4B4BB4
:101760004A4A4A49494948484847474747464646FA
:101770004545454444444443434343424242424135
:101780004141002B9C4630D477002BD01CB54FEA4A
:10179000370703B44FF010004FF01001BAF1000FFB
:1017A00006D0BCF1000FDCBF40F0080040F008019B
:1017B0004FF000000FBCBDE810400BF1010BBBF176
:1017C000010F08BF5FEA170722BF12F1010211F1F2
:1017D00001014FF0004143F1000300F0004043EAF3
:1017E00000007047F9D35708D0E746EA064613F1E0
:1017F000400F4FEA16461FDD13F1200FDFBF1643DF
:101800000A46002120335B42BED0C3F1200746EADE
:10181000064602FA07F74FEA164646EA0706C3F1FC
:10182000200722FA03F201FA07F721FA03F14FF039
:10183000000342EA0702A7E746EA020646EA06462E
:101840004FEA164646EA0106BCBF46EA0646360C93
:101850004FF000034FF000024FF0000194E72DE934
:10186000804C9A46934670B491E8380007C831EA34
:10187000400C48BF34EA430C03D5FFF7E6FDFFF701
:1018800080FFF0BCBDE8008C2DE9804C9A46934661
:1018900070B491E8380007C810F0804F08BF13F00B
:1018A000804F03D100F005F8FFF76BFFF0BCBDE8F7
:1018B000008C20F07F4780EA030023F07F4C07EB89
:1018C0000C03A3F57C5300F00040A3F1FE0392F05B
:1018D000000F00F0B38095F0000F00F077802DE945
:1018E00001494FEA11404FEA144621EA004800FB43
:1018F00006FC24EA064708FB06F607FB08F800FB8F
:1019000007F718EB06484CEB164C4FEA124B18EB56
:1019100007484FEA15464CEB174022EA0B4E0BFBEB
:1019200006FC25EA06470EFB06F607FB0EFE0BFB40
:1019300007F71EEB064E4CEB164C4FF000061EEB65
:10194000074E4CEB174B18EB0B0840F1000018EB5F
:101950000E0B58EB000840F100008F1A4FF0000109
:101960003CBFC943661B14BFB5EB040C00213CBF50
:10197000C943F61B4FEA17444EEA8E0E27EA044588
:101980004FEA1C4704FB07622CEA074C05FB07F7EC
:101990000CFB05F604FB0CFC16EB074642EB17426A
:1019A00016EB0C4642EB1C421BEB060658EB020200
:1019B000414146EA9E0601D5BDE80189B61952416A
:1019C00041EB0101A3F10103BDE801894FEA144590
:1019D0004FEA114724EA054621EA074C05FB07F4C4
:1019E00006FB07F70CFB06F105FB0CFC11EB0741AE
:1019F00044EB17444FEA124711EB0C4144EB1C44F3
:101A000022EA074C05FB07F206FB07F70CFB06F67C
:101A100005FB0CFC16EB074642EB174216EB0C4697
:101A200042EB1C456A1854F1000148BF7047B619D3
:101A3000524141EB0101A3F10103704795F0000F02
:101A400037D04FEA11424FEA144721EA024624EA0E
:101A5000074C02FB07F106FB07F70CFB06F402FB41
:101A60000CFC14EB074441EB17414FEA154714EB0C
:101A70000C4441EB1C4125EA074C02FB07F506FB31
:101A800007F70CFB06F602FB0CFC16EB074645EBD2
:101A9000174516EB0C4645EB1C42121951F100019B
:101AA00048BF7047B619524141EB0101A3F1010350
:101AB00070474FEA14454FEA114724EA054621EAE8
:101AC000074C05FB07F106FB07F70CFB06F24FF08E
:101AD000000605FB0CFC12EB074241EB174112EB31
:101AE0000C4251EB1C4148BF7047921841EB010179
:101AF000A3F10103704721B1826842F001028260C4
:101B000003E0826822F001028260704721B182689E
:101B100042F48072826003E0826822F48072826004
:101B20007047014600208A6802F004020AB10120D1
:101B300000E0002070470146C86C80B27047024642
:101B4000002013680B400BB1012000E0002070471B
:101B5000014600208A6802F008020AB1012000E074
:101B60000020704730B502460020002350680F4C1B
:101B700020400D790C6844EA0524204350609068A9
:101B80000B4C2040D1E902542C434D7944EA4504E2
:101B900020439060D06A20F470000C7C641EE4B294
:101BA000234340EA0350D06230BD0000FFFEF0FF47
:101BB000FDF7F1FFF0B504460D4600200021092D88
:101BC00011DDE068A5F10A0606EB4607072606FACE
:101BD00007F18843A5F10A0606EB460603FA06F16B
:101BE0000843E0600CE0206905EB4507072606FA8C
:101BF00007F1884305EB450603FA06F10843206127
:101C0000072A0FDA606B561E06EB86071F2606FAB8
:101C100007F18843561E06EB860605FA06F10843CF
:101C2000606322E00D2A0FDA206BD61F06EB8607D1
:101C30001F2606FA07F18843D61F06EB860605FA2B
:101C400006F10843206310E0E06AA2F10D0606EBFE
:101C500086071F2606FA07F18843A2F10D0606EB58
:101C6000860605FA06F10843E062F0BD816841F09E
:101C700008018160704721B1826842F4A00282604D
:101C800003E0826822F4A00282607047816841F01C
:101C900004018160704700BFFEE721B1026842F095
:101CA0000102026004E002684FF6FE731A4002600F
:101CB000704710B50022026847F6F0739A430C6A29
:101CC0008B6823430C6923434C6923438C6923436A
:101CD000CC6923434C6A23438C6A23431A43026032
:101CE000CB6843600B6883604B68C36010BD70476E
:101CF0002DE9F041024600250026002000230024A3
:101D0000002791F803C00CF00F0591F803C00CF008
:101D1000100CBCF1000F03D091F802C04CEA05058D
:101D200091F800C0BCF1000F31D0146800202BE006
:101D30004FF0010C0CFA00F3B1F800C00CEA0306F6
:101D40009E4220D183004FF00F0C0CFA03F7BC43E6
:101D500005FA03FC4CEA040491F803C0BCF1280F17
:101D600006D14FF0010C0CFA00FCC2F814C00AE0D6
:101D700091F803C0BCF1480F05D14FF0010C0CFAEB
:101D800000FCC2F810C0401C0828D1D31460B1F880
:101D900000C0BCF1FF0F34DD546800202EE000F1DC
:101DA000080C4FF0010808FA0CF3B1F800C00CEA77
:101DB00003069E4221D183004FF00F0C0CFA03F76B
:101DC000BC4305FA03FC4CEA040491F803C0BCF1DF
:101DD000280F05D100F1080C08FA0CF8C2F814809D
:101DE00091F803C0BCF1480F07D100F1080C4FF087
:101DF000010808FA0CF8C2F81080401C0828CED35D
:101E00005460BDE8F0810246002093680B400BB19E
:101E1000012000E00020704702460020D3680B40FC
:101E20000BB1012000E00020704741617047016163
:101E300070470AB1016100E04161704700B591B09F
:101E40000121480200F0DEFC0121042000F0DAFC50
:101E50000121084600F0B6FC4FF4004000F0A6FC5B
:101E600000208DF843000220ADF8400003208DF8DB
:101E7000420010A92D48FFF73BFF05230122114620
:101E80002B48FFF797FE00200B900E904FF4602038
:101E90000D9001208DF8310000208DF830000120D8
:101EA0008DF83C000BA92248FFF75CFE20484C301F
:101EB000009080150690002004901E4801904FF479
:101EC0008060079000200590029001200390202060
:101ED000089000200A904FF48050099069461648F7
:101EE000FFF7E7FE01211448FFF7D7FE0121104854
:101EF000FFF70CFE01210E48FFF7FDFD0C48FFF730
:101F0000B5FE00BF0A48FFF723FE0128FAD00848B3
:101F1000FFF7BCFE00BF0648FFF703FE0128FAD01A
:101F200001210348FFF7A7FE11B000BD00080140E2
:101F3000002401401A0000200800024000BFFEE714
:101F400010B502210748FFF75EFF08B9012010BD58
:101F50004FF400610348FFF756FF08B90220F6E787
:101F60000020F4E7000C014008B50121082000F032
:101F700049FC48208DF8030040F60200ADF800004F
:101F800003208DF8020069460148FFF7B1FE08BD45
:101F9000000C014010B50F480078401C0D49087036
:101FA00008460078142813DB002008700A480078DF
:101FB0000A490870FFF7C4FF07490870084600780F
:101FC00030B90648007818B1044800780449087010
:101FD00010BD000015000020160000201700002092
:101FE0001400002008B50121102000F00BFC102087
:101FF0008DF803004002ADF8000003208DF80200C8
:1020000069460448FFF774FE4FF400510148FFF79A
:102010000EFF08BD0010014010B54FF400510848F4
:10202000FFF7FAFE28B94FF400510548FFF7FFFE0D
:1020300004E04FF400510248FFF7F7FE10BD000026
:102040000010014000BFFEE77047000070B500219E
:1020500000230F22C47804B3154C246804F4E06410
:10206000C4F5E064210AC1F10403CA40447804FACB
:1020700003F184781440214309010E4C0678A155E0
:10208000047804F01F050124AC4005786D11AD0003
:1020900005F1E025C5F8004109E0047804F01F05CA
:1020A0000124AC40044D0678761145F8264070BDF9
:1020B0000CED00E000E400E080E100E002490143B3
:1020C000024A1160704700000000FA050CED00E0C4
:1020D00000200CE0002106E00022064B03EBC013B9
:1020E0005A544A1CD1B28029F6DB421CD0B20828CF
:1020F000F0DB70475C0000202DE9F04304460D46FC
:1021000016461F46284638E0224631E0002A2DDBDD
:102110007F2A2BDC002829DB3F2827DC4FEAE07CE4
:1021200000EB5C7C4FEAEC0CDFF8588008EBCC1C31
:102130001CF802C003464FEAE07800EB58784FEAFB
:10214000E808A0EBC8094FF0010808FA09F82CEAE2
:10215000080C01464FEAE07800EB58784FEAE808AF
:10216000DFF8209009EBC81808F802C0511C0AB229
:10217000A1199142CADC411C08B2E9198142C3DCB1
:10218000BDE8F0835C00002038B5002406E000259F
:1021900000E06D1CB5F57A7FFBD3641CB4F57A7F43
:1021A000F5D30121082000F02DFB14208DF8030049
:1021B00003208DF802004FF48070ADF800006946EE
:1021C0000848FFF795FD4FF40070ADF80000694630
:1021D0000448FFF78DFD012000F054FA012000F0C3
:1021E0005DFA38BD000C014070B50546002411E0D1
:1021F00080212141294009B1012100E00021084648
:1022000000F04CFA012000F03DFA002000F03AFA0C
:10221000601CC4B2082CEBDB012000F033FA002074
:1022200000F030FA70BD10B5012000F037FA01203F
:1022300000F028FA002000F031FA002000F022FA25
:1022400010BD10B5002000F029FA012000F01AFAA4
:10225000012000F023FA10BD10B5FFF795FFAE2066
:1022600000F028FAD52000F025FA802000F022FAAC
:10227000A82000F01FFA3F2000F01CFAD32000F045
:1022800019FA002000F016FA402000F013FAA120FD
:1022900000F010FAC82000F00DFADA2000F00AFA77
:1022A000122000F007FA812000F004FACF2000F09D
:1022B00001FAD92000F0FEF9F12000F0FBF9DB2053
:1022C00000F0F8F9302000F0F5F9A42000F0F2F960
:1022D000A62000F0EFF98D2000F0ECF9142000F0BA
:1022E000E9F9AF2000F0E6F9FFF7F2FE00F0B6F9E9
:1022F00010BD0FB470B5C2B005460E4614464AA8CC
:10230000019002A8019A4999FDF7B4FF00200190BD
:10231000234602AA3146284600F0BEF842B070BCFF
:102320005DF814FB70B505460C4645F0B00000F0B2
:10233000C1F9102141EA141000F0BCF904F00F00BB
:1023400000F0B8F970BD0000F8B506460F46144617
:102350001D46082D0CD1A4F120000E4901EB001000
:102360001023082239460090304600F017F80FE09D
:10237000062D0DD1A4F1200000EB4000064901EB31
:1023800040000823062239460090304600F006F847
:10239000F8BD00006E3F00085E4500082DE9FF4FC4
:1023A00080460E469146DDF834B0002500244A46AA
:1023B00031464046039BFFF79FFE00BF5EE00025CD
:1023C00058E008EB0500002852DB08EB05007F28E9
:1023D0004EDC3046F11706EB5171C9100FB2F11700
:1023E00006EB5171C910A6EBC10A002E05DA781E62
:1023F00007B20AF108000FFA80FA3819002817DB33
:102400003819072814DC3819224901EBC01008EBF1
:102410000501405C04FB09511BF8011001FA0AF1A7
:10242000084339191B4A02EBC11108EB0502885415
:102430003819401C00281BDB3819401C072817DC02
:102440003819401C134901EBC01008EB0501405C32
:1024500004FB09511BF80110CAF10802114108439D
:102460003919491C0B4A02EBC11108EB05028854CB
:10247000681CC5B24D45A4DB601CC4B20399481E5C
:10248000C11700EB5171012202EBE101A14296DC80
:10249000BDE8FF8F5C0000202DE9FE4F07468A460D
:1024A000144698460025AB460026CBE0605D00F060
:1024B000800058B94FF0010B2846691C8DB2205C92
:1024C0008DF8040000208DF805006BE0605D00F0E1
:1024D000E000C02814D14FF0020B2846691C8DB2D1
:1024E000205C8DF80400605D00B9AFE02846691CEF
:1024F0008DB2205C8DF8050000208DF8060051E0BB
:10250000605D00F0F000E0281DD14FF0030B28467D
:10251000691C8DB2205C8DF80400605D00B995E007
:102520002846691C8DB2205C8DF80500605D00B9FD
:102530008CE02846691C8DB2205C8DF806000020D6
:102540008DF807002EE0605D00F0F800F02826D13D
:102550004FF0040B2846691C8DB2205C8DF80400F6
:10256000605D00B972E02846691C8DB2205C8DF870
:102570000500605D00B969E02846691C8DB2205CE9
:102580008DF80600605D00B960E02846691C8DB2D8
:10259000205C8DF8070000208DF8080002E0681C20
:1025A00085B24FE0BBF1010F0BD19DF80420B919A2
:1025B00008B243465146FFF7C7FE06EB080086B255
:1025C0003FE04FF000090EE009EB890101EB4911F2
:1025D000204A881801A9FDF75FFE00B90EE009F155
:1025E00001001FFA80F909EB890101EB4911194A31
:1025F000881819A1FDF750FE0028E5D100BFB8F1F9
:10260000080F12D109EB890000EB49101149084469
:10261000401DB919009008B210231A465146FFF721
:10262000BDFE06F1100086B20BE0B8F1060F08D12E
:10263000B91908B206233F225146FFF785FEB01DA7
:1026400086B200BF605D00287FF430AF00BFBDE8F8
:10265000FE8F0000984700080000000010B500241D
:102660000BE000212046FFF75DFE054901EBC41099
:10267000802100F02FF8601CC4B2082CF1DB10BDE3
:102680005C00002010B5044622464FF480710248D9
:10269000FFF7CFFB10BD0000000C014010B5044651
:1026A00022464FF400710248FFF7C3FB10BD000043
:1026B000000C014010B50446FFF7B5FD7820FFF788
:1026C00093FD0020FFF790FD2046FFF78DFDFFF7FB
:1026D000B8FD10BD70B505460E46FFF7A4FD782085
:1026E000FFF782FD4020FFF77FFD002404E0285D16
:1026F000FFF77AFD601CC4B2B442F8DBFFF7A1FD1E
:1027000070BD000000B589B00121084600F06AF8EC
:102710000121042000F076F818208DF82300012014
:10272000ADF8200003208DF8220008A91948FFF712
:10273000DFFA4FF0804000F067FB0020ADF81A0090
:10274000ADF816006320ADF818002320ADF8140092
:1027500000208DF81C0005A94FF0804000F0B2FB6E
:1027600001A800F0A3FB6020ADF804000020ADF844
:102770000C000120ADF806000020ADF80A0001A908
:102780004FF0804000F046FB0121880700F016FB67
:1027900009B000BD0008014010B5044621464FF0C5
:1027A000804000F08DFB10BD704700000146002006
:1027B000034A506820F440400843506070470000CE
:1027C0000010024029B1064A52690243044B5A6183
:1027D00004E0034A52698243014B5A61704700008A
:1027E0000010024029B1064AD2690243044BDA6163
:1027F00004E0034AD2698243014BDA61704700006A
:102800000010024029B1064A92690243044B9A61C2
:1028100004E0034A92698243014B9A6170470000C9
:102820000010024030B500210022002400232D4D6D
:102830006D6805F00C0121B1042905D0082923D1C8
:1028400005E0294D056022E0274D05601FE0254D7C
:102850006D6805F47012234D6D6805F4803402250F
:1028600005EB92421CB9214D554305600BE01D4D0F
:102870006D6805F400351DB11C4D5543056002E03F
:10288000194D5543056002E0174D056000BF00BFBC
:10289000144D6D6805F0F0010909154D6B5C056874
:1028A000DD4045600F4D6D6805F4E061090A104D8B
:1028B0006B5C4568DD4085600A4D6D6805F46051CC
:1028C000C90A0B4D6B5C4568DD40C560054D6D6800
:1028D00005F44041890B074D6B5CC568B5FBF3F50A
:1028E000056130BD0010024000127A0000093D0071
:1028F000000000201000002010B50446012C06D175
:102900000523012202211648FFF754F919E0022C91
:1029100006D10523012203211148FFF74BF910E0EE
:10292000032C06D10523012204210D48FFF742F9AB
:1029300007E0042C05D10523012219460848FFF7BA
:1029400039F901210648FFF796F900BF0221044832
:10295000FFF7F5F80028F9D00148FFF7ECF810BDB3
:102960000028014000B587B001218802FFF74AFF27
:1029700001210420FFF746FF4FF40040FFF716FF48
:1029800000208DF81B003C20ADF8180003208DF8C6
:102990001A0006A91648FFF7ABF900200190049031
:1029A0004FF46020039000208DF809008DF8080096
:1029B00001208DF8140001A90E48FFF7D3F801217A
:1029C0000C48FFF798F80B48FFF750F900BF09488B
:1029D000FFF7BEF80128FAD00648FFF757F900BF05
:1029E0000448FFF79EF80128FAD007B000BD0000A8
:1029F00000080140002801407047000000B587B082
:102A000001218803FFF7FEFE01210420FFF7FAFEF3
:102A100018208DF81B004FF40070ADF8180003204B
:102A20008DF81A0006A92148FFF762F948208DF8B1
:102A30001B004FF48060ADF8180003208DF81A00D9
:102A400006A91A48FFF754F94FF4165002900020D7
:102A5000ADF814000C20ADF812000020ADF8100005
:102A6000ADF80E00ADF80C0002A9114800F04EFBC5
:102A7000012240F225510E4800F022FB4FF4A060E5
:102A8000FFF71CFB25208DF8040001208DF80700BE
:102A90008DF805008DF8060001A8FFF7D7FA01218F
:102AA000034800F0CAFA07B000BD0000000801406A
:102AB000003801400FB400B59BB01DA8019002A8DA
:102AC000019A1C99FDF7D6FB0020019002A800F0A6
:102AD00013F81BB05DF814FB10B5044621460548F9
:102AE00000F085FB00BF8021024800F0B2FA002808
:102AF000F9D010BD0038014070B50446002504E04F
:102B0000605DFFF7E9FF681CC5B2605D0028F7D182
:102B100070BD10B500F002F810BD00000CB500202B
:102B2000019000903348006840F4803031490860DB
:102B300000BF3048006800F4003000900198401C4D
:102B40000190009818B90198B0F5A06FF1D129480B
:102B5000006800F4003010B10120009001E0002076
:102B600000900098012843D12348006840F01000ED
:102B7000214908600846006820F003000860084604
:102B8000006840F0020008601A484068194948602F
:102B90000846406848600846406840F480604860E5
:102BA0000846406820F47C1048600846406840F4BD
:102BB000E81048600846006840F08070086000BF78
:102BC0000C48006800F000700028F9D009484068FF
:102BD00020F00300074948600846406840F00200C2
:102BE000486000BF0348406800F00C000828F9D195
:102BF0000CBD0000001002400020024070470000A1
:102C000010B51348006840F00100114908600846FB
:102C10004068104908400E494860084600680E495F
:102C200008400B4908600846006820F480200860CE
:102C30000846406820F4FE0048604FF41F0088609A
:102C4000FFF767FF4FF000600449086010BD000007
:102C5000001002400000FFF8FFFFF6FE08ED00E064
:102C60002DE9F0470121444800F0B4F801287DD156
:102C7000FFF790F941480088401C40490880084609
:102C8000008828286FDB002008803D48008800F07D
:102C9000A5FF3C4908603C4800683C4908603C4846
:102CA000006839490860374801683A48006801F00F
:102CB000E5F837490860344801684FF0804000F07B
:102CC000D5FF814632480168484601F0CCF880467D
:102CD0002E480168404600F0F7FE07462E4801687E
:102CE000384600F0C3FF0546294801682B480068B4
:102CF00000F0BCFF8046244801682548006801F0C8
:102D0000BDF8814626480168484600F0AFFF0746F7
:102D1000414600F0D9FE0646294600F0D5FE04469D
:102D200020480168204600F0CFFE1E4908601E4979
:102D30001C48006801F066F802D21B481949086077
:102D40001A491848006800F05DFF02D2174815497B
:102D500008601448006800F025FF44B2204600F0E7
:102D60007FFAFFF759F90121034800E001E000F084
:102D700022F8BDE8F0870000002C01405800002038
:102D80001A000020340000205000002054000020D1
:102D90004C000020380000204800002044000020A3
:102DA000400000203C0000200000C8420000C8C2D3
:102DB000CA4302827047CA430282704721B1028827
:102DC00042F00102028004E002884FF6FE731A40CE
:102DD0000280704730B50246002000230024158A87
:102DE00005EA0103958905EA010413B10CB101203C
:102DF00000E0002030BD1AB183890B43838102E0DB
:102E000083898B438381704701894FF6F8721140A3
:102E10000181704770B5002400220023058C4FF615
:102E2000FE7635400584028C8388048B4FF68F75BF
:102E30002C40B51E2C400D882C43751E2A400D8950
:102E40002A434D882A43144DA8420BD0134DA84263
:102E500008D0134DA84205D0124DA84202D0124D01
:102E6000A84213D14FF6F7752A404D892A434FF6F1
:102E7000FB752A408D882A434FF6FF652B404FF69D
:102E8000FF552B408D892B43CD892B4383800483B1
:102E9000CD888586028470BD002C0140003401403D
:102EA00000400140004401400048014000210180F1
:102EB00041808180C180018141818181C1817047D0
:102EC00081867047002202881D4B98420ED01D4B10
:102ED00098420BD0B0F1804F08D01B4B984205D0E0
:102EE0001A4B984202D01A4B984204D14FF68F7376
:102EF0001A404B881A43174B984207D0164B9842FA
:102F000004D04FF6FF431A40CB881A4302808B88C7
:102F100083850B8803850A4B98420BD0094B984256
:102F200008D00E4B984205D00D4B984202D00D4B65
:102F3000984201D10B7A03860123838270470000F7
:102F4000002C014000340140000400400008004013
:102F5000000C004000100040001400400040014000
:102F600000440140004801401FB50121C802FFF79D
:102F700049FC1B48FFF748FF0020ADF80A00ADF8F8
:102F800006006320ADF808004720ADF804000020DB
:102F90008DF80C0001A91248FFF794FF0121104899
:102FA000FFF706FF012211460D48FFF724FF4FF4FB
:102FB000A060FFF783F819208DF8000001208DF83C
:102FC000030002208DF8010001208DF80200684600
:102FD000FFF73CF801210248FFF7F0FE1FBD00009B
:102FE000002C014010B540F22551094800F03EF890
:102FF00001280CD1064800F0F5F8064908700120B8
:103000000549087040F22551014800F007F810BD4D
:1030100000380140180000201900002010B50022DF
:10302000002340F66A14A14200D100BF0A12012415
:103030009440A3B2DC43048010BD21B1828942F4E4
:103040000052828104E082894DF6FF731A4082812A
:10305000704702460020B1F5007F00D100BF138801
:103060000B400BB1012000E00020704770B5024614
:10307000002400230025002040F66A16B14200D14A
:1030800000BFC1F3421501F01F03012606FA03F346
:10309000012D02D19689334006E0022D02D1168A15
:1030A000334001E0968A33400C12012606FA04F4FC
:1030B0001688344013B10CB1012000E0002070BD2F
:1030C000F0B50346002400260025002040F66A17CC
:1030D000B94200D100BF1846C1F3421401F01F06E7
:1030E000012707FA06F5012C01D10C3004E0022C6F
:1030F00001D1103000E014301AB107682F43076087
:1031000002E00768AF430760F0BD00002DE9F0471B
:1031100086B005460E460024A24600BFA146002701
:10312000B08900B100BF2F462C8A4CF6FF700440D6
:10313000F08804432C82AC894EF6F3100440B0882A
:1031400031890843718908430443AC81AC8A4FF646
:10315000FF400440B0890443AC8201A8FFF762FB42
:103160001F48874202D1DDF810A001E0DDF80CA075
:10317000A88900F4004040B10AEBCA0000EB0A1035
:1031800031684900B0FBF1F807E00AEBCA0000EB38
:103190000A1031688900B0FBF1F86420B8FBF0F048
:1031A00004012009642101FB1089A88900F4004072
:1031B00040B1322000EBC900B0FBF1F000F0070095
:1031C000044308E0322000EB09106421B0FBF1F069
:1031D00000F00F0004432C8106B0BDE8F08700002A
:1031E0000038014001468888C0F308007047C1F3E9
:1031F00008028280704700BFFEE7490050EAC12004
:1032000018BF04204A0D18BF40F0010040F2FF72C1
:10321000B2EB515F08BF40F00200012808BF052053
:10322000704730380A2801D20120704700207047CB
:1032300008B501210820FFF7E5FA10208DF80300FA
:103240004FF44050ADF8000003208DF802006946AD
:103250000248FEF74DFDFFF755FA08BD000C01408E
:1032600010B50446002C0DDB4FF480510D48FEF7DD
:10327000DEFD4FF400510B48FEF7D7FDA0B2FFF77B
:103280008BFA0DE04FF480510648FEF7CEFD4FF467
:1032900000510448FEF7CBFD614288B2FFF77CFA8B
:1032A00010BD0000000C01401FB5FEF7D5FFFEF772
:1032B00099FEFEF759FEFFF755FBFFF7B9FFFFF741
:1032C0009DFBFEF7BBFDFFF74FFE62A30622002128
:1032D0000846FFF70EF8FFF7C1F9BAE00120FFF743
:1032E0000BFB824600F0B2FA804600225E4B00F0F3
:1032F00055F9064600224FF0804300F0BBFA044621
:1033000000F01AF9594908600220FFF7F5FA8246E1
:1033100000F09CFA06460022534B00F03FF90446A9
:1033200000224FF0804300F0A5FA804600F004F937
:103330004F4908600320FFF7DFFA824600F086FA63
:1033400080460022484B00F029F9064600224FF043
:10335000804300F08FFA044600F0EEF8454908601B
:103360000420FFF7C9FA824600F070FA8046002276
:103370003D4B00F013F9064600223F4B00F07AFA6D
:10338000044600F0D9F83D4908603848006800F06C
:103390006FFB3BA30822CDE9000110210020FEF7BE
:1033A000A8FF3348006800F063FB38A30822CDE98A
:1033B000000120210020FEF79CFF2E48006800F04D
:1033C00057FB35A30822CDE9000130210020FEF78C
:1033D00090FF2A48006800F04BFB32A30822CDE999
:1033E000000110214020FEF784FF3148006800F002
:1033F0003FFB30A30822CDE9000120214020FEF749
:1034000078FF2F48006800F033FB2EA30822CDE997
:10341000000130214020FEF76CFFFFF71FF928481C
:10342000006800F025FB04460D462148006800F0C6
:103430001FFB06460F461148006800F019FB804646
:1034400042460B4622A0CDE90067CDE90245FFF7D1
:1034500031FB43E754656D70657261747572652068
:10346000436F6E74726F6C0000FEAF40400000202E
:10347000440000204800002000004940380000209F
:103480004B703A25342E3266000000004B693A2515
:10349000342E3266000000004B643A25342E32662A
:1034A000000000005461723A2530342E306600006E
:1034B000340000204163743A2530342E3066000019
:1034C0003C0000204F75743A2530342E30660000E1
:1034D00025662C2025662C2025660D0A000000009C
:1034E00010B500290AD00878002807D0054878448C
:1034F000FCF7D2FE002801D0002010BD024878441D
:1035000010BD0000EA140000E214000010B500290C
:103510000AD00878002807D005487844FCF7BCFE9C
:10352000002801D0002010BD0248784410BD0000E2
:10353000DA140000D214000021F00042A2F160521F
:10354000B2F5801F01F0004328BFD2F17F6C0BD988
:103550005FEA001C43EAC20242EB507018BF70479A
:1035600028BF20F001007047B2F5801FBCBF18468D
:1035700070474FEA410C1CF5001F02D2084600F0CC
:103580003CBC70B500F020FA00000089FFF7F6BFE0
:103590004FF00040A0F58000704700002DE9C041C9
:1035A00030B4DFF8A0C23CEA111418BF3CEA13148F
:1035B00000F0EC8081EA03051CEA111444EAD5749A
:1035C00018BF1CEA131500F0C780A4EB05044FF0E8
:1035D000004545EAC12145EAC32341EA505143EA87
:1035E000525304F17F74994204F500344FEAC0202D
:1035F0004FEAC22208BF904200F09C804FEA136558
:103600000FF24016765D4FEA134506FB05F7C7F14A
:10361000807706FB07F74FEAD737A7FB03687642A8
:10362000C8F58038A7FB06CE38BFA8F1010807FB14
:1036300008E64FF0000EA6FB028CE6FB03CEDCF1A1
:10364000000CCEF1004E38BFAEF1010EA6FB0C58B7
:103650004FF000074FF00005E6FB0E87A1FB08C600
:10366000A0FB07CE16EB0E0645F10005E1FB076552
:1036700015F1E04E7EBFA4F580345FEA46066D4149
:1036800016F1800745F100054FEA17274FEA066655
:1036900047EA0567A6F1DE46B6F1805F4FEA1525D9
:1036A0001FD9384624F0010C05EBC471BCF1FE6F44
:1036B00001EB0C1102D8F0BCBDE8008124425CBFD4
:1036C00001F5801E9EEAC47F02D4F0BCBDE80081F3
:1036D000244238D4F0BCA1F1C041BDE8004100F063
:1036E000C1B94FEAD22242EA43524FEAD323A7FBA1
:1036F00002864FEAD02040EA415007FB03661EEAEB
:103700000E0F4FEAD12105FB026658BFA6EB00560B
:10371000B6EB00564FEA520E4EEAC37E18EB0E0E81
:1037200056EB530EBDD518EB02085E417F1C55F1D8
:103730000005B6E74FF480154FF000074FF0000684
:103740004FF00008ADE7F0BC4FF0000001F1C041C0
:1037500001F00041BDE8008111EA0C1F0CEA1315CD
:1037600000D00CE013EA0C1F00F025804FF00000A1
:10377000F0BC81EA030101F00041BDE80081F0BC2A
:10378000BDE8004181EA030100F06CB9F0BCBDE87E
:10379000004170B500F018F9097EFC3E00F007B852
:1037A00081EA03014FF0000001F00041704781EA17
:1037B000030100F057B9F0BCBDE800414FF0000034
:1037C00021497047FFFDFBF9F7F5F4F2F0EEEDEB60
:1037D000E9E8E6E4E3E1E0DEDDDBDAD8D7D5D4D30F
:1037E000D1D0CFCDCCCBCAC8C7C6C5C4C2C1C0BF5B
:1037F000BEBDBCBBBAB9B8B7B6B5B4B3B2B1B0AF61
:10380000AEADACABAAA9A8A8A7A6A5A4A3A3A2A144
:10381000A09F9F9E9D9C9C9B9A99999897979695FF
:1038200095949393929191908F8F8E8E8D8C8C8B9B
:103830008B8A898988888787868585848483838223
:10384000828181800000FF070000F87FB0FA80F3DA
:1038500010FA03F10AD0C3F11D0303F580634FEAA8
:1038600041504FEA035202EBD12170474FF0000064
:1038700070470000DFF848C170B51CEA111E1EBF7A
:103880001CEA13159EEA0C0F95EA0C0F00F06F80EE
:1038900081EA030423EA4C134EEAD47E21EA4C1158
:1038A00041F4801143F48013AE44A1FB024CA0FB11
:1038B0000365AEF17F7E361955EB0C05A1FB034C79
:1038C0004CF10003A0FB021C16EB0C06654153F102
:1038D0000003094218BF46F0010613F4007F0BD124
:1038E0004FEA03314FEA0530340341EA155140EA0B
:1038F00016506FF003020AE04FEAC3214FEAC520D9
:10390000F40241EA555140EA56506FF0020202EBD0
:103910002E4201EB025585EACE710AD05FEA440CD3
:1039200018BF24F0004450F1000041F1000120EAEA
:10393000D47040F2FE7C624500D270BDA84214BF34
:103940004FF080444FF04044002E08BF0024BEF1E9
:10395000806FA8BFA1F1C041BDE8704080F28280B5
:103960004FF0000001F1C04101F0004170479EEAB4
:103970000C0F0CEA131518BF95EA0C0F06D04FF088
:10398000000081EA030E0EF0004170BD00F01CF84B
:103990008900013E00F007B800F009B84FEA430C77
:1039A0005FEA5C5C08D081EA030100F05BB84FEA93
:1039B000410C5FEA5C5CF6D14FF0000001497047B2
:1039C0000000FF070000F87F0EF1020E2EF0030E3C
:1039D0005EF8046B364205D4012A43EB030515F566
:1039E000001F12D8012841EB010C1CF5001F0CD858
:1039F0000ED14FEAD17C15F5001F0CEB4C0C0CF1ED
:103A0000020C08BF4CEBD37C04E04FF0080C01E043
:103A10004FEAD37C0CEB4C0526FA05F606F00706B8
:103A2000B6F1040C06D20EEB860CBDE870404CF0EB
:103A3000010C6047DFE80CF0090B02024FF0004177
:103A40004FF00000A1F5002170BD19461046012875
:103A500051EB010418BFD4F5001484BF002001F01D
:103A6000004170BD0808A0F500114FEA3101704710
:103A700043004FEAD30C4FEA3C0C43401FBF4007C2
:103A80000CF1605113F0FE4F70471CF0006F03D132
:103A900000200CF0004170470CF0004343EA5070E6
:103AA00010B540EACC0000F062F900BF00000092BF
:103AB0004FEA0001FFF7D6BF4FF000414FF0000082
:103AC000A1F500217047000090EA010F48BF81F086
:103AD000004100F1DA81421A3CBF801A89184FEA8E
:103AE000D0524FF07F4C1CEA410FA2EBD15318BFCC
:103AF0009CEA026F00F03B804FF0004C4CEA002043
:103B00004CEA012121FA03FC10EB0C0C1ED202F14D
:103B1000FF325FEA1C2040EBC25038BF70471CF0F8
:103B20007F0F4FEA400C18BFBCF17F4F38BF704782
:103B3000C3F12003994008BF20F00100BCF17F4F82
:103B400038BF7047A0F1C04000F057B94FEA3C00C1
:103B5000000A40EBC25028BF1CF0FF0F4FEA400C98
:103B6000E6D018BFBCF17F4F38BF7047EAE79CEA48
:103B7000026F05D010EA5C0F08BF00F000407047EC
:103B800010B500F0F4F800BF64FBBE3E401058BF13
:103B9000C0F14040491058BFC1F140418142EFF3AC
:103BA0000080704741000B0ED3F19E0208D950F4FB
:103BB00000034FEA032323FA02F048BF4042704754
:103BC00010B500F0D4F800BF49922480002070475F
:103BD0006FF0004282EA200070470000B0FA80F3E4
:103BE00010FA03F2C3F19D030AD0D90501EB1220AC
:103BF000530638BF704700F1010008BF20F00100F4
:103C00007047000050EA010C00F113801CF5000F12
:103C100058BFBCF5000F01D48842704707D710F594
:103C2000000F58BF11F5000F15D488427047894224
:103C300070471CF5000F04D5BCF5000FF7D5814285
:103C400070474FF0807C1CEB400F38BF1CEB410FDE
:103C500001D28142704710B500F089F892244900E2
:103C60004FF000504FF08051FFF790BF4FF47F0CA2
:103C70001CEAD0121EBF1CEAD11392EA0C0F93EA81
:103C80000C0F00F0478090EA010F48BF42F48072A9
:103C90004FF0004C4CEA00204CEA012102EB0302F9
:103CA000A0FB0113A2F50002002918BF43F0010395
:103CB0005B0028BF4FEA330342EB22425FEA132C3A
:103CC0004CEBC2502EBFBCEB436FB2F57C0F70477C
:103CD0004FEA036CBCF1004F08BF20F00100B2F5C1
:103CE0007C0F38BF70470BD582F0FF0212F5803F82
:103CF000C8BF704700F1C040D8BF00F00040704717
:103D000000F5000C5FEA4C0C48BF7047B0F1C040B2
:103D100000F073B890EA010F0CEAD11348BF42F4E7
:103D20008072624538BF634504D280EA010000F02A
:103D30000040704710B500F01AF800BF8900013E3E
:103D400000F007B800F009B85FEA410C5FEA1C6CAC
:103D500008D080EA010000F050B85FEA400C5FEA4A
:103D60001C6CF6D14FF00040A0F5800070470EF1BA
:103D7000020E2EF0030E5EF8044B244204D44FEAE8
:103D80004102B2F17F4F11D84FEA4003B3F17F4FA8
:103D90000CD80ED14FEAD07CB2F17F4F0CEB4C0C1B
:103DA0000CF1020C08BF4CEBD17C04E04FF0080C86
:103DB00001E04FEAD17C0CEB4C0324FA03F404F04D
:103DC0000704B4F1040C06D20EEB840CBDE81040DD
:103DD0004CF0010C6047DFE80CF0070802024FF0DE
:103DE0000040A0F5800010BD0846420018BFD2F187
:103DF000807288BF00F0004010BDFF2141EAD05022
:103E0000C005704751EA000C00F113801CF5000F4B
:103E100058BFBCF5000F01D48142704707D711F598
:103E2000000F58BF10F5000F15D48142704789422A
:103E300070471CF5000F04D5BCF5000FF7D588427C
:103E400070474FF0807C1CEB410F38BF1CEB400FDC
:103E500001D28842704780EA010081EA000180EACD
:103E60000100FFF7F8BE80F0004090EA010F7FF5F7
:103E700032AE81F0004100F008B8000090EA010F76
:103E800048BF81F000413FF526AE421A04D882F0C7
:103E90000042A0EB020011444FEAD0524FF07F4C99
:103EA0001CEA410FA2EBD15318BF9CEA026F4AD023
:103EB0004FF0004C4CEA00204CEA012121FA03FCAF
:103EC000B0EB0C0C0FD412F0FE0F36D05FEA4C00B2
:103ED0001DD5001240EBC25038BF70471CF03F0F99
:103EE00018BF70470BE0A2F101025FEA1C2040EB13
:103EF000C25038BF70471CF07F0F18BF7047C3F126
:103F00002003994014BF401E20F001007047800834
:103F10004FEA122308BF7047B0FA80FCA2EB0C02F4
:103F2000CCF1280C60FA0CF093EA122F04BF00EBDE
:103F3000C25070474FEAC3707047130A5FEADC1043
:103F400008BF7047F6E79CEA026F04D010EA5C0FE6
:103F500008BF0020704710B5FFF709FF40DFF63EAD
:103F600081F000407047FCF704BEFCF739BF000049
:103F70000000000000000000000000000000000041
:103F800000F80000000000000033300000000016C0
:103F90000E00160E0000000000000000000040C0EF
:103FA0007840C0784000043F04043F0404000070DF
:103FB00088FC08300000001820FF211E0000F008D7
:103FC000F000E018000000211C031E211E0000F07C
:103FD0000888700000001E212324192721100000EA
:103FE00000160E00000000000000000000000000AD
:103FF00000E0180402000000000718204000000242
:104000000418E000000000402018070000004040B5
:1040100080F0804040000202010F01020200000017
:1040200000F0000000000101011F0101010000007B
:1040300000000000000000B0700000000000000060
:104040000000000000000001010101010101000069
:104050000000000000000030300000000000000000
:10406000000080601804006018060100000000E0F5
:1040700010080810E000000F102020100F000010A2
:1040800010F8000000000020203F202000000070F9
:1040900008080888700000302824222130000030F1
:1040A0000888884830000018202020110E000000E9
:1040B000C02010F8000000070424243F240000F86A
:1040C0000888880808000019212020110E0000E04F
:1040D000108888180000000F112020110E000038F1
:1040E0000808C83808000000003F00000000007009
:1040F000880808887000001C222121221C0000E092
:1041000010080810E0000000312222110F0000000A
:1041100000C0C000000000000030300000000000BF
:1041200000C0C0000000000080B07000000000006F
:1041300080402010080000010204081020004040C8
:10414000404040404000040404040404040000080B
:1041500010204080000000201008040201000070C0
:1041600048080808F0000000003036010000C030A8
:10417000C828E810E0000718272423140B000000CB
:10418000C038E0000000203C23020227382008F855
:10419000888888700000203F202020110E00C03049
:1041A000080808083800071820202010080008F820
:1041B00008080810E000203F202020100F0008F819
:1041C0008888E8081000203F20202320180008F8E5
:1041D0008888E8081000203F200003000000C0305D
:1041E00008080838000007182020221E020008F8DE
:1041F00008000008F808203F210101213F200008A5
:1042000008F8080800000020203F202000000000DF
:104210000808F8080800C08080807F00000008F8C7
:1042200088C028180800203F20012638200008F800
:10423000080000000000203F20202020300008F867
:10424000F800F8F80800203F003F003F200008F881
:1042500030C00008F808203F200007183F00E01099
:1042600008080810E0000F10202020100F0008F8A8
:1042700008080808F000203F210101010000E010BB
:1042800008080810E0000F18242438504F0008F8E0
:10429000888888887000203F2000030C3020007040
:1042A0008808080838000038202121221C0018083E
:1042B00008F8080818000000203F2000000008F857
:1042C00008000008F808001F202020201F000878A0
:1042D000880000C83808000007380E010000F80800
:1042E00000F80008F800033C0700073C030008182A
:1042F00068808068180820302C03032C3020083890
:10430000C800C83808000000203F20000000100846
:104310000808C8380800203826212020180000008E
:1043200000FE020202000000007F40404000000C3E
:1043300030C000000000000000010638C00000028C
:104340000202FE000000004040407F00000000200C
:104350001008040810200000000000000000000009
:10436000000000000000808080808080808000024B
:104370000408000000000000000000000000000031
:104380008080808000000019242222223F2008F82B
:10439000008080000000003F112020110E0000006E
:1043A000008080800000000E1120202011000000FD
:1043B00000808088F800000E112020103F200000AF
:1043C000808080800000001F2222222213000080B3
:1043D00080F0888888180020203F202000000000FE
:1043E000808080808000006B94949493600008F833
:1043F000008080800000203F210000203F200080BE
:104400009898000000000020203F202000000000BD
:1044100000809898000000C08080807F000008F82D
:10442000000080808000203F24022D302000000802
:1044300008F8000000000020203F202000008080BD
:10444000808080808000203F20003F20003F00804F
:1044500080008080000000203F2100203F200000DD
:10446000808080800000001F202020201F0080808E
:1044700000808000000080FFA12020110E000000BD
:10448000008080808000000E112020A0FF808080AE
:1044900080008080800020203F212000010000005B
:1044A0008080808080000033242424241900008030
:1044B00080E0808000000000001F2020000080803D
:1044C000000000808000001F202020103F208080FE
:1044D00080000080808000010E300806010080808E
:1044E0000080008080800F300C030C300F000080B3
:1044F0008000808080000020312E0E3120008080DE
:1045000080000080808080818E701806010000800D
:104510008080808080000021302C2221300000002B
:104520000000807C020200000000003F40400000CC
:104530000000FF00000000000000FF00000000027B
:10454000027C800000000040403F0000000000802E
:1045500040408000008000000000000101000000D9
:10456000000000000000002F00000000070007000E
:1045700000147F147F1400242A7F2A1200231308BA
:104580006462003649552250000000070000000018
:104590001C224100000041221C000014083E0814A7
:1045A0000008083E0808000000A060000008080895
:1045B0000808000060600000002010080402003EAF
:1045C0005149453E0000427F40000042615149464A
:1045D000002141454B31001814127F10002745453A
:1045E0004539003C4A49493000017109050300364C
:1045F0004949493600064949291E0000363600005F
:104600000000563600000008142241000014141463
:104610001414000041221408000201510906003E52
:104620004955592E007C1211127C007F49494936A8
:10463000003E41414122007F4141221C007F494907
:104640004941007F09090901003E4149497A007F3B
:104650000808087F0000417F4100002040413F01E1
:10466000007F08142241007F40404040007F020C40
:10467000027F007F0408107F003E4141413E007FE1
:1046800009090906003E4151215E007F09192946AA
:104690000046494949310001017F0101003F404086
:1046A000403F001F2040201F003F4038403F006334
:1046B0001408146300070870080700615149454356
:1046C00000007F4141000002040810200000414129
:1046D0007F0000040201020400404040404000000E
:1046E00001020400002054545478007F48444438A8
:1046F00000384444442000384444487F003854542F
:10470000541800087E0901020018A4A4A47C007FAC
:10471000080404780000447D4000004080847D004F
:10472000007F102844000000417F4000007C0418F6
:104730000478007C0804047800384444443800FCC1
:10474000242424180018242418FC007C08040408DD
:1047500000485454542000043F444020003C404052
:10476000207C001C2040201C003C4030403C004489
:1047700028102844001CA0A0A07C004464544C4491
:104780000000087F41000000007F00000000417F22
:104790000800000804081008EFBC8C0000000000AE
:1047A00000000000000000000000000000000058B1
:1047B00038000000000000000000000000E38082DC
:1047C00000000000000000000000000000000000E9
:1047D0000000000018242418000000000000000061
:1047E0000000E4BDA00000008060F8074020180F22
:1047F00008C80808281800010000FF00100C03403A
:10480000807F0001061800E5A5BD00001010F01F14
:1048100010F000808282E2928A8680004022150891
:104820001661000040807F0000000000E4B89600A0
:1048300000202020FE2020FF202020FF20202020FC
:10484000000000007F40404744444447404040004F
:1048500000E7958C0000000000FE929292FE92927A
:1048600092FE0000000008080484621E010001FEA0
:104870000204040808000000000000FF01010131EB
:1048800009090909897101010101FFFF8080808008
:1048900080809681808080808080FFFF018181817F
:1048A000FD8991A1C1FD81818101FFFF8080808010
:1048B0009F888482819F80808080FF0000000000AC
:1048C0000000000030313233343536373839414258
:1048D0004344454640305800303132333435363762
:1048E000383961626364656640307800040000080E
:1048F0000000000000000002000100001030313212
:1049000033343536373839616263646566787000F0
:1049100030313233343536373839414243444546F5
:104920005850000002400000000000A000000000FD
:1049300005400000000000C8000000000C4000001E
:104940000000409C00000000194000000020BCBE98
:104950000000000034400000BFC91B8E00000004AE
:10496000B5400000504BCFD06607E2CF01000000F9
:104970006C4100003E8251AADFEEA7340100000026
:10498000D9420000DCB5A0E23A301F97FFFFFFFFDD
:10499000B4450000FD25A0C8E9A3C14FFFFFFFFFFC
:1049A000FF3F00000000008000000000FF3F00000B
:1049B0000000008000000000044B00080000002000
:1049C0005C00000028010008604B00085C0000202B
:1049D000640A0000440100081C00000043000000BD
:1049E000F8FFFFFF0C0000000E0000000F000000A9
:1049F0002E0000001001000043000000F8FFFFFF40
:104A000000404040404040404040414141414140E1
:104A10004040404040404040404040404040404096
:104A20004005020202020202020202020202020225
:104A3000022020202020202020202002020202022A
:104A40000202909090909090101010101010101082
:104A5000101010101010101010101010020202028E
:104A600002028888888888880808080808080808D2
:104A700008080808080808080808080802020202CE
:104A800040000000000000000000000000000000E6
:104A90000000000000000000000000000000000016
:104AA0000000000000000000000000000000000006
:104AB00000000000000000000000000000000000F6
:104AC00000000000000000000000000000000000E6
:104AD00000000000000000000000000000000000D6
:104AE00000000000000000000000000000000000C6
:104AF00000000000000000000000000000000000B6
:104B00000000000000000000010203040102030491
:104B10000607080902040608000000000000000063
:104B20000000000000000000000000000000000085
:104B30000000000000000000000000000000000075
:104B40000000000000000000000000000000000065
:104B50000000000000000000000000000000000055
:04000005080000ED02
:00000001FF
